S00C00006D61696E2E7372656373
S1130000FDC0000021C100001FC100001DC100008F
S11300101BC1000019C1000017C1000015C1000078
S113002013C1000011C100000FC100000DC1000088
S11300300BC1000009C1000035C2000005C1000069
S113004003C1000001C10000FFC00000FDC00000AA
S1130050FBC00000F9C00000F7C00000F5C00000BC
S1130060F3C000000C94100D0C94180EEDC00000A9
S1130070EBC00000E9C00000E7C00000E5C00000DC
S1130080E3C00000E1C00000DFC00000DDC00000EC
S1130090DBC00000D9C00000D7C00000D5C00000FC
S11300A0D3C00000D1C00000CFC00000CDC000000C
S11300B0CBC00000C9C00000C7C00000C5C000001C
S11300C0C3C00000C1C00000BFC00000BDC000002C
S11300D0BBC00000B9C00000B7C00000B5C000003C
S11300E0B3C00000B1C000000C94C00D0C94DE0E2F
S11300F0ABC00000A9C00000A7C00000A5C000005C
S1130100A3C00000A1C000009FC000009DC000006B
S11301109BC0000099C0000097C0000095C000007B
S113012093C0000091C000008FC000008DC000008B
S11301308BC0000089C0000087C0000085C000009B
S113014083C0000081C000007FC000007DC00000AB
S11301507BC0000079C0000077C0000075C00000BB
S11301600C94680D0C947B0E6FC000006DC00000F1
S11301706BC0000069C0000067C0000065C00000DB
S113018063C0000061C000005FC000005DC00000EB
S11301905BC0000059C0000057C0000055C00000FB
S11301A053C0000051C000004FC000004DC000000B
S11301B04BC0000049C0000047C0000045C000001B
S11301C043C0000041C000003FC000003DC000002B
S11301D03BC0000039C0000037C0000035C000003B
S11301E033C0000031C000002FC000002DC000004B
S11301F02BC0000029C0000027C0000011241FBE2E
S1130200CFEFCDBFDFE3DEBF00E00CBF18BE19BEE9
S11302101ABE1BBE10E2A0E0B0E2E0ECF0E200E0A7
S11302200BBF02C007900D92A233B107D9F71BBED2
S113023028E3A2E3B0E201C01D92AF31B207E1F7B7
S11302400E94B00C0C945E10DBCECF93DF93EC01D4
S113025014D640913220509133209E01240F351F33
S1130260203787E1380758F44217530758F4EA0156
S1130270CC5CDF4D209332203093332005C0C0E0A6
S1130280D0E002C0C0E0D0E0C9D6CE01DF91CF916A
S11302900895089531E1FC013083319722E22083EF
S11302A03197A3E3A08331976083319770833197AB
S11302B0108231971082319760E860833197108201
S11302C0319762E06083319763E06083319764E043
S11302D06083319765E06083319766E0608331978E
S11302E067E06083319768E06083319769E06083F9
S11302F0319760E1608331973083319732E1308305
S1130300319733E13083319734E13083319735E1EC
S11303103083319736E13083319737E13083319739
S113032038E13083319739E13083319730E23083DB
S1130330319731E2308331972083319723E2208350
S11303403197408331975083319726E22083319748
S113035027E22083319728E22083319729E2208302
S1130360319720E32083319721E3208387970895F1
S113037065E080E098E00E94040D83EF91E0E0E006
S1130380F8E086A397A361E080E098E00E940A0D5C
S1130390E0EAF0E0828181608283A091FB37B09132
S11303A0FC37CD91CDBFDD91DEBFFF91EF91DF91A1
S11303B0CF91BF91AF919F918F917F916F915F91F9
S11303C04F913F912F911F910F91FF90EF90DF90EC
S11303D0CF90BF90AF909F908F907F906F905F90E1
S11303E04F903F902F901F900F900FBE0F90089545
S11303F081E008950F920FB6F8940F921F92112482
S11304002F923F924F925F926F927F928F929F9220
S1130410AF92BF92CF92DF92EF92FF920F931F930E
S11304202F933F934F935F936F937F938F939F93F8
S1130430AF93BF93CF93DF93EF93FF93A091FB37D9
S1130440B091FC370DB60D920EB60D928AD6A091DE
S1130450FB37B091FC37CD91CDBFDD91DEBFFF916D
S1130460EF91DF91CF91BF91AF919F918F917F9148
S11304706F915F914F913F912F911F910F91FF9039
S1130480EF90DF90CF90BF90AF909F908F907F9030
S11304906F905F904F903F902F901F900F900FBEE2
S11304A00F9008950F920FB6F8940F921F92112493
S11304B02F923F924F925F926F927F928F929F9270
S11304C0AF92BF92CF92DF92EF92FF920F931F935E
S11304D02F933F934F935F936F937F938F939F9348
S11304E0AF93BF93CF93DF93EF93FF93A091FB3729
S11304F0B091FC370DB60D920EB60D92CED431D616
S1130500A091FB37B091FC37CD91CDBFDD91DEBF1B
S1130510FF91EF91DF91CF91BF91AF919F918F9117
S11305207F916F915F914F913F912F911F910F9107
S1130530FF90EF90DF90CF90BF90AF909F908F90FF
S11305407F906F905F904F903F902F901F900F90EF
S11305500FBE0F901895FC010396818392832FEFB1
S11305603FEF238334838583968387839087108228
S11305700895FC01108611860895CF93DF93FC0142
S1130580DB0121813281E9018A819B8112968D935D
S11305909C9313978181928114968D939C931597C4
S11305A08A819B81EC016C837D83E9016A837B836F
S11305B0618372831896ED93FC93199780818F5F02
S11305C08083DF91CF910895CF93DF93EB0148812E
S11305D059814F3F2FEF520731F4DC011796ED910B
S11305E0FC91189717C0FC013396DC0115962D91E8
S11305F03C911697D9012D913C914217530750F025
S11306000280F381E02DA281B3812D913C914217A8
S11306105307B0F7A281B381AA83BB831496CD9309
S1130620DC931597EC83FD83C283D38388879987F2
S1130630FC0120812F5F2083DF91CF910895FC017D
S1130640A281B3818481958114968D939C9315978F
S1130650A481B5818281938112968D939C93139783
S1130660A085B18511968D919C9112978E179F0745
S113067031F48481958111968D939C931297108601
S113068011868C9181508C930895CF93DF93EC0164
S11306908C8D81110AC088819981892BD9F58A8131
S11306A09B81F4D61A821B8235C0411117C0482F92
S11306B050E08C819D810E943F102C8D8C819D8106
S11306C0820F911D8C839D832A813B81821793071E
S11306D008F1888199818C839D831CC0482F50E048
S11306E08E819F810E943F102C8D30E031952195A1
S11306F031098E819F81820F931F8E839F8348814E
S113070059818417950730F48A819B81280F391FFA
S11307102E833F838A8D8F5F8A8FDF91CF910895D7
S1130720FC01CB01A081B181109799F0448D50E078
S113073026813781240F351F268337836281738195
S11307402617370710F0A683B783668177810C9448
S11307503F1008950F931F93CF93DF93EC010FB6CF
S1130760F8940F928E8D18169CF48989882381F051
S11307708E010F5E1F4F03C08989882349F0C80189
S11307808FD5811117D68E8D81508E8F1816A4F3B4
S11307908FEF8E8F0F900FBE0FB6F8940F928D8D42
S11307A018169CF48885882381F08E01085F1F4FFA
S11307B003C08885882349F0C80172D58111FAD510
S11307C08D8D81508D8F1816A4F38FEF8D8F0F9020
S11307D00FBEDF91CF911F910F910895CF92DF92B9
S11307E0EF92FF920F931F93CF93DF93D82EC62ED1
S11307F08823A1F18FE190E028DDEC01009781F1DD
S1130800EC2CF12CDE9C8001DF9C100D1124C8011E
S113081001961BDD888399830097D9F0AC01400FC2
S1130820511F4A835B831A8E8C839D830E191F0983
S11308309C01200F311F2E833F83DB8ECC8E8FEFE4
S11308408D8F8E8FCE01089686DECE01419683DE93
S113085007C0CE011EDDC0E0D0E002C0C0E0D0E0A1
S1130860CE01DF91CF911F910F91FF90EF90DF9018
S1130870CF900895AF92BF92CF92DF92EF92FF9202
S11308800F931F93CF93DF93CDB7DEB72597CDBFDB
S1130890DEBF8C016B014C835D83A22EB12C7C01E5
S11308A088E0E80EF11C0FB6F8940F92F801928DCF
S11308B0838D981790F44A2DB601C801E6DEF8013D
S11308C08189882331F0C8014196EAD4813009F442
S11308D091DD0F900FBE81E047C0EC81FD81EF2BCD
S11308E021F40F900FBE80E03FC0B11005C0CE01CF
S11308F0019617D5BB24B3940F900FBEBED20FB68A
S1130900F8940F92F801858D8F3F09F4158EF80144
S1130910868D8F3F09F4168E0F900FBEBE016C5F5B
S11309207F4FCE01019608D581111AC00FB6F894F5
S11309300F92F801928D0F900FBEF801838D9813DA
S11309400BC06C817D81C70169D4C80103DF66D304
S11309508111A9CF4FDDA7CFC801FCDE5FD3A3CFA0
S1130960C801F8DE5BD380E02596CDBFDEBFDF9102
S1130970CF911F910F91FF90EF90DF90CF90BF9098
S1130980AF9008950F931F93CF93DF93EC018A01E7
S11309909A8D8B8D9817B0F4422FCE0176DE8E8D12
S11309A08F3F61F48989882379F0CE01419678D408
S11309B0882361F081E0F801808309C08F5F8E8F06
S11309C081E005C080E003C081E001C081E0DF91E7
S11309D0CF911F910F910895AF92BF92CF92DF9262
S11309E0EF92FF920F931F93CF93DF93CDB7DEB7B0
S11309F02597CDBFDEBF8C016B014C835D83B22E86
S1130A00A12C7C0181E1E80EF11C0FB6F8940F9241
S1130A10F801828D882369F1E680F780B601C80168
S1130A207FDEB11017C0F801828D8150828F8081E2
S1130A309181892B21F4C2D4F80182839383F80134
S1130A408085882391F0C80108962AD4813069F4FE
S1130A50D1DC0BC0F801E682F7828189882329F072
S1130A60C80141961DD48111C5DC0F900FBE81E0F1
S1130A7053C04C815D81452B21F40F900FBE80E063
S1130A804BC0A11005C0CE0101964BD4AA24A39457
S1130A900F900FBEF2D10FB6F8940F92F801858D26
S1130AA08F3F09F4158EF801868D8F3F09F4168E59
S1130AB00F900FBEBE016C5F7F4FCE0101963CD4F8
S1130AC0811126C00FB6F8940F92F801828D0F9011
S1130AD00FBE811119C0F80180819181892B49F4DD
S1130AE00FB6F8940F92F801828193817AD40F9013
S1130AF00FBE6C817D81C70191D3C8012BDE8ED2DC
S1130B00811183CF77DC81CFC80124DE87D27DCFEA
S1130B10C80120DE83D280E02596CDBFDEBFDF9101
S1130B20CF911F910F91FF90EF90DF90CF90BF90E6
S1130B30AF9008950F931F93CF93DF93EC018A0135
S1130B408A8D8823C1F0CE01EBDD8A8D81508A8F96
S1130B508D8D8F3F61F48885882379F0CE010896C6
S1130B609FD3882361F081E0F801808309C08F5FFF
S1130B708D8F81E005C080E003C081E001C081E089
S1130B80DF91CF911F910F910895CF93DF93EC01E3
S1130B900FB6F8940F928D8D8F3F09F41D8E8E8DB4
S1130BA08F3F09F41E8E0F900FBE8A8D811103C0F2
S1130BB0CE0141965BD3CE01CDDDDF91CF91089577
S1130BC0C7EDD7E388818230E8F314DCFBCFCF9301
S1130BD0DF93EC01E091FB37F091FC378283938340
S1130BE08091AC379091AD37C817D90760F4609104
S1130BF0FB377091FC378091C1379091C2376E5F9B
S1130C007F4FE2DC16C06091FB377091FC37809116
S1130C10C3379091C4376E5F7F4FD6DC809100203C
S1130C2090910120C817D90720F4C0930020D093D5
S1130C300120DF91CF9108954F925F926F927F923E
S1130C408F929F92AF92BF92CF92DF92EF92FF92D8
S1130C500F931F93CF93DF934C013B015A0129015A
S1130C6082E290E0F2DAEC01009709F4C8C0C11402
S1130C70D10409F0C0C0C501E8DA8F8B988F0097C2
S1130C8019F4CE0106DBBBC0A50165EA70E00E9441
S1130C90481081E0A81AB1088F89988DA80EB91E52
S1130CA048E050E0B301CE0149960E944F1018A2CB
S1130CB0102F043008F013E01E8B19A36E01E2E03C
S1130CC0CE0ED11CC60155DCCE010C9652DCC88771
S1130CD0D98784E090E0811B91098C879D87CA8B1A
S1130CE0DB8BA201B401C501D5DA88839983E114B1
S1130CF0F10419F0F701C083D1830FB6F8940F9271
S1130D008091AE378F5F8093AE378091FB3790919F
S1130D10FC37892B69F5C093FB37D093FC3780915E
S1130D20AE378130A1F587ED97E315DC80EE97E3CC
S1130D3012DC89EE97E30FDC82EF97E30CDC8EEC98
S1130D4097E309DC85EC97E306DC88EB97E303DCA7
S1130D508FEA97E300DC8EEC97E38093C33790939C
S1130D60C43785EC97E38093C1379093C2370FC0A3
S1130D708091A93781110BC0E091FB37F091FC37CA
S1130D808689081720F0C093FB37D093FC378E89EF
S1130D909091AB37981710F48093AB379091A437A8
S1130DA09F5F9093A4379091AA37981710F480937B
S1130DB0AA3790E09C01220F331F220F331F220F0A
S1130DC0331F820F931FB6018952984CD6DB0F90C4
S1130DD00FBE8091A937882351F0E091FB37F09141
S1130DE0FC378689801728F405DB81E009C081E09F
S1130DF007C081E005C0CF8AD88EC60145CF8FEFEA
S1130E00DF91CF911F910F91FF90EF90DF90CF90E2
S1130E10BF90AF909F908F907F906F905F904F9016
S1130E200895AF92BF92CF92DF92EF92FF920F9309
S1130E30A12CB12CC12CD12CE12CF12C00E020E010
S1130E4030E046E950E062E070E280EE95E0F4DEE6
S1130E50813059F4A0D3813041F4F8948093A937B8
S1130E601092AC371092AD3783DA0F91FF90EF9068
S1130E70DF90CF90BF90AF9008958091A8378F5F97
S1130E808093A83708950FB6F8940F928091AC37E9
S1130E909091AD370F900FBE08950F931F93CF938A
S1130EA0DF938091A8378111AFC08091AC379091C6
S1130EB0AD3701968093AC379093AD378091AC37C2
S1130EC09091AD37892B99F58091C3379091C437B0
S1130ED02091C1373091C2372093C3373093C43740
S1130EE08093C1379093C2378091A5378F5F8093E9
S1130EF0A537E091C337F091C4378081811107C0D1
S1130F008FEF9FEF809300209093012010C0E09119
S1130F10C337F091C4370580F681E02D0680F78150
S1130F20E02D828193818093002090930120209171
S1130F30AC373091AD378091002090910120281773
S1130F40390708F466C0E091C337F091C437808153
S1130F50882399F0E091C337F091C4370580F68176
S1130F60E02DC681D7818A819B812091AC37309155
S1130F70AD3728173907F8F419C08FEF9FEF809326
S1130F8000209093012045C0E091C337F091C4370D
S1130F900580F681E02DC681D7818A819B812091CD
S1130FA0AC373091AD372817390728F480930020E7
S1130FB0909301202EC08E010E5F1F4FC8013FDBAE
S1130FC08C899D89892B19F0CE010C9638DB8E898A
S1130FD09091AA37981710F48093AA3790E09C0157
S1130FE0220F331F220F331F220F331F820F931F31
S1130FF0B8018952984CC1DAE091C337F091C437F3
S113100080818111C1CFB9CF8091A7378F5F809341
S1131010A737DF91CF911F910F910895BF92CF927F
S1131020DF92EF92FF920F931F93CF93DF930FB64C
S1131030F8940F928091A83781508093A8378091BB
S1131040A837811162C08091AE37882309F45FC04C
S1131050B12C0F2EF8EBEF2EF7E3FF2EF02D0F2E11
S1131060FDEBCF2EF7E3DF2EF02D2CC0D601ED9152
S1131070FC91C681D781CE010C96E1DA8E010E5F18
S11310801F4FC801DCDA8E899091AA37981710F4A3
S11310908093AA3790E09C01220F331F220F331F45
S11310A0220F331F820F931FB8018952984C65DABF
S11310B0E091FB37F091FC379E898689981710F0F0
S11310C0BB24B394F70180818111D0CF8091A737DD
S11310D0882379F08091A737882391F0DEDE809110
S11310E0A73781508093A7378091A7378111F6CF16
S11310F007C0F1E0BF1621F08091A637813049F492
S11311001092A63777D981E005C080E003C080E063
S113111001C080E00F900FBEDF91CF911F910F911E
S1131120FF90EF90DF90CF90BF900895CF93DF931F
S1131130EC01009791F0A1DE8091AC379091AD372E
S1131140C80FD91F8091FB379091FC37029677DA4C
S1131150CE013DDD63DF811101C04CD9DF91CF9118
S113116008958091A837811113C08091AA3790E027
S1131170FC01EE0FFF1FEE0FFF1FEE0FFF1F8E0F80
S11311809F1FFC01E952F84C8081882329F01BC081
S113119081E08093A63708958091AA378150809387
S11311A0AA378091AA3790E0FC01EE0FFF1FEE0FE3
S11311B0FF1FEE0FFF1F8E0F9F1FFC01E952F84C1B
S11311C08081882349F3E091AA37F0E0CF01880FAA
S11311D0991F880F991F880F991FE80FF91FE9526B
S11311E0F84CA181B28112960D90BC91A02DA183DF
S11311F0B283CF010396A817B90731F412968D91E3
S11312009C911397818392830180F281E02D8681E2
S113121097818093FB379093FC370895CF93DF93A6
S1131220EB016091FB377091FC37645F7F4FCCD941
S11312308091FB379091FC37029601DACF3F8FEF14
S1131240D80751F46091FB377091FC376E5F7F4F84
S11312508FEA97E392D907C08091AC379091AD376C
S11312608C0F9D1FB4DCDF91CF910895CF93DF9352
S1131270EB016091FB377091FC37645F7F4F7DD940
S11312808091FB379091FC370296D9D98091AC3785
S11312909091AD378C0F9D1F9ADCDF91CF9108950B
S11312A00F931F93CF93DF93DC011596ED91FC917F
S11312B01697C681D7818E01045F1F4FC801BFD91D
S11312C08091A83781111AC00A501109C801B7D9F1
S11312D08E899091AA37981710F48093AA3790E0DA
S11312E09C01220F331F220F331F220F331F820F43
S11312F0931FB8018952984C40D904C0B80188EBB7
S113130097E33BD9E091FB37F091FC3781E02E89DC
S11313109689291708F480E0DF91CF911F910F91EE
S113132008952091A537FC0120832091AC3730919A
S1131330AD372183328308950FB6F8940F92DB0101
S11313402D913C912F3FBFEF3B0761F14091A537B1
S1131350FC015081541751F04091AC375091AD3796
S11313600180F281E02D4E175F07F0F4E091AC3775
S1131370F091AD37DC0111964D915C911297E41B0D
S1131380F50BE217F30790F4E091AC37F091AD3729
S11313904E1B5F0B240F351FFB0120833183C1DFFC
S11313A080E005C080E003C081E001C081E00F90CF
S11313B00FBE089581E08093A63708958091FB378E
S11313C09091FC3708958091A937882331F080915A
S11313D0A837811104C081E0089580E0089582E077
S11313E008950F931F93CF93DF93EC018E89E091BF
S11313F0FB37F091FC379689891708F042C0E091D9
S1131400FB37F091FC37968924E030E0291B310941
S11314102C873D8790E09C01220F331F220F331F3E
S1131420220F331F820F931F8952984C2A853B85C4
S11314302817390701F58E010E5F1F4FC801FFD829
S1131440E091FB37F091FC3786898E8B9091AA3717
S1131450981710F48093AA3790E09C01220F331F51
S1131460220F331F220F331F820F931FB80189529B
S1131470984C83D806C0E091FB37F091FC378689FD
S11314808E8BDF91CF911F910F9108950F931F932E
S1131490CF93DF93EC01009729F19E8989A19817D6
S11314A009F18E010E5F1F4FC801C9D889A18E8B27
S11314B024E030E0281B31092C873D879091AA371E
S11314C0981710F48093AA3790E09C01220F331FE1
S11314D0220F331F220F331F820F931FB80189522B
S11314E0984C4BD8DF91CF911F910F910895FC0137
S11314F062837383808791874617570788F0421B5E
S1131500530B8485958548175907D0F4BF016E5F46
S11315107F4F809101389091023856D880E0089529
S11315204217530718F46217730760F4BF016E5F24
S11315307F4F809103389091043846D880E0089515
S113154081E0089581E008950FB6F8940F92809198
S1131550FF3790910038892BD9F48EE098E30E94EC
S1131560AB0285E098E30E94AB028EE098E380939F
S113157003389093043885E098E38093013890937E
S1131580023865E080E12AD98093FF3790930038D0
S11315900F900FBE0895AF92BF92CF92DF92EF9259
S11315A0FF920F93D1DF8091FF3790910038892B00
S11315B089F0A12CB12CC12CD12CE12CF12C01E00F
S11315C020E030E046E950E067E070E285EA9BE025
S11315D033DB01C080E00F91FF90EF90DF90CF905C
S11315E0BF90AF9008950F931F93CF93DF93CDB720
S11315F0DEB72597CDBFDEBFD901E091FF37F0916B
S11316000038309749F169834A835B838C839D83D7
S11316101097D1F4D8DE813059F420E0A801BE013E
S11316206F5F7F4F8091FF379091003823D915C0A9
S113163020E040E050E0BE016F5F7F4F8091FF37B4
S11316409091003817D909C020E0AD01BE016F5F49
S11316507F4FCF0197D901C080E02596CDBFDEBF73
S1131660DF91CF911F910F910895AF92BF92CF92C6
S1131670DF92EF92FF920F931F93CF93DF935C015E
S113168002DC6C018091FD379091FE37C816D906B3
S113169008F049C031C0A581B681ED90FC90058069
S11316A0F681E02DC681D7818E010E5F1F4FC801E0
S11316B00E941F03E989FA89CE0119958E8581302C
S11316C0D9F48C859D858E0D9F1DE816F90660F46E
S11316D08A839B83C887D987B80180910338909106
S11316E004380E94E40208C000E010E020E030E08A
S11316F0A70160E0CE0177DFE0910338F091043870
S113170080818111C8CF80910138909102388093F3
S1131710033890930438E0930138F093023881E061
S1131720F501808302C0F5011082C092FD37D0928A
S1131730FE37C601DF91CF911F910F91FF90EF907B
S1131740DF90CF90BF90AF900895CF93DF9300D0F8
S113175000D0CDB7DEB7CE0101965C01882E9B2C5C
S1131760E0910338F09104388081882309F4B0C0F3
S11317700580F681E02DE080F1807FDBC50175DF17
S11317808C018981811143C00E151F0590F146DC3F
S1131790E0910338F09104380580F681E02DC6808D
S11317A0D780C60102960E941F03D6011E968C9113
S11317B01E978130A1F41C966D917C911D976E0D3E
S11317C07F1D9701A801C60192DE813041F400E03B
S11317D010E020E030E0A70160E0C60104DFD6019C
S11317E05196ED91FC915297C601199511C0E12CC7
S11317F0F12CB701601B710B8091FF379091003879
S1131800C4D90CDC811104C00E94FA0101C006DCB9
S1131810CE0106962ADF6C014EC0EC80FD80E114F7
S1131820F10459F0D7011A96ED91FC911B97EF2B17
S113183021F0C70102960E941F038981823049F179
S11318408330B1F1811137C02A813B81F70164856E
S11318507585620F731FA601C70149DE813059F5F2
S1131860D7015196ED91FC915297C7011995F70153
S11318708685813001F5448555858A819B81480F91
S1131880591F00E010E020E030E060E0C701ABDE6B
S113189012C02A813B81D7011C962D933C931D973E
S11318A0B601620F731F9601A601C70120DE03C0B3
S11318B0C7010E94490120E040E050E0682D792DE5
S11318C08091FF379091003887D88111A6CF48CFF7
S11318D0D4DAC501CADE8C018981882309F487CF53
S11318E096CFC0E0D6E010E11F8388EE93E01EDCC3
S11318F0FBCFC0E0D6E011E01F8384E690E016DC65
S1131900FBCFCF93DF931F92CDB7DEB740E862E001
S113191080EA98E0B6D28C014AE050E06FE070E2D1
S113192094D340E050E0BE016F5F7F4FC80186D37F
S11319308823B9F34AE050E06981C80159D3F1CF53
S113194088ED84BF82E080935000E0E5F0E081817F
S113195081FFFDCF88ED84BF81E08093400008952E
S1131960AF92BF92CF92DF92EF92FF920F93E8DF94
S1131970E0E0F6E080E1818381E08183A12CB12C59
S1131980C12CD12CE12CF12C02E020E030E040E02D
S113199054E06EE170E281E79CE04ED920E030E053
S11319A040E054E065E270E289E79CE045D920E03C
S11319B030E040E054E06CE270E281E89CE03CD925
S11319C030DA80E090E00F91FF90EF90DF90CF90BD
S11319D0BF90AF900895EF920F930E29442311F016
S11319E030E801C030E0032B222311F020E401C0D1
S11319F020E0022B2FB7F8946093B000FC01008B19
S1131A002FBF0F91EF900895FC012081207F622B5E
S1131A1060830895FC0126812C7F622B66830895E0
S1131A201F920F920FB60F92112408B60F9218BE90
S1131A3009B60F9219BE0AB60F921ABE0BB60F92D0
S1131A401BBE2F933F934F935F936F937F938F931B
S1131A509F93AF93BF93EF93FF93CF93DF931F9223
S1131A601F92CDB7DEB7E0911D38F0911E381A826F
S1131A70A081B1818C91898320E0AE014E5F5F4FDC
S1131A80BE016F5F7F4F838194810E94C2048A816B
S1131A9081110E94FA010F900F90DF91CF91FF9175
S1131AA0EF91BF91AF919F918F917F916F915F91D2
S1131AB04F913F912F910F900BBE0F900ABE0F9044
S1131AC009BE0F9008BE0F900FBE0F901F9018957F
S1131AD01F920F920FB60F92112408B60F9218BEE0
S1131AE009B60F9219BE0AB60F921ABE0BB60F9220
S1131AF01BBE2F933F934F935F936F937F938F936B
S1131B009F93AF93BF93EF93FF93CF93DF931F9272
S1131B101F92CDB7DEB7E0911B38F0911C381A82C2
S1131B20A081B1818C91898320E0AE014E5F5F4F2B
S1131B30BE016F5F7F4F838194810E94C2048A81BA
S1131B4081110E94FA010F900F90DF91CF91FF91C4
S1131B50EF91BF91AF919F918F917F916F915F9121
S1131B604F913F912F910F900BBE0F900ABE0F9093
S1131B7009BE0F9008BE0F900FBE0F901F901895CE
S1131B801F920F920FB60F92112408B60F9218BE2F
S1131B9009B60F9219BE0AB60F921ABE0BB60F926F
S1131BA01BBE2F933F934F935F936F937F938F93BA
S1131BB09F93AF93BF93EF93FF93CF93DF931F92C2
S1131BC01F92CDB7DEB7E0911938F0911A381A8216
S1131BD0A081B1818C91898320E0AE014E5F5F4F7B
S1131BE0BE016F5F7F4F838194810E94C2048A810A
S1131BF081110E94FA010F900F90DF91CF91FF9114
S1131C00EF91BF91AF919F918F917F916F915F9170
S1131C104F913F912F910F900BBE0F900ABE0F90E2
S1131C2009BE0F9008BE0F900FBE0F901F9018951D
S1131C301F920F920FB60F92112408B60F9218BE7E
S1131C4009B60F9219BE0AB60F921ABE0BB60F92BE
S1131C501BBE0F931F932F933F934F935F936F93E9
S1131C607F938F939F93AF93BF93EF93FF93CF9300
S1131C70DF931F921F92CDB7DEB700911D381091EC
S1131C801E38AE014F5F5F4FBE016E5F7F4FD801BC
S1131C9015968D919C9116970E949A05813031F486
S1131CA0D801ED91FC918A81808306C0D801ED9121
S1131CB0FC9183818C7F83830F900F90DF91CF9170
S1131CC0FF91EF91BF91AF919F918F917F916F9110
S1131CD05F914F913F912F911F910F910F900BBEE8
S1131CE00F900ABE0F9009BE0F9008BE0F900FBE52
S1131CF00F901F9018951F920F920FB60F921124F8
S1131D0008B60F9218BE09B60F9219BE0AB60F9202
S1131D101ABE0BB60F921BBE0F931F932F933F93C4
S1131D204F935F936F937F938F939F93AF93BF93DF
S1131D30EF93FF93CF93DF931F921F92CDB7DEB73C
S1131D4000911B3810911C38AE014F5F5F4FBE01EC
S1131D506E5F7F4FD80115968D919C9116970E94C6
S1131D609A05813031F4D801ED91FC918A81808308
S1131D7006C0D801ED91FC9183818C7F83830F9001
S1131D800F90DF91CF91FF91EF91BF91AF919F9110
S1131D908F917F916F915F914F913F912F911F91FF
S1131DA00F910F900BBE0F900ABE0F9009BE0F90BB
S1131DB008BE0F900FBE0F901F9018951F920F92A0
S1131DC00FB60F92112408B60F9218BE09B60F92DF
S1131DD019BE0AB60F921ABE0BB60F921BBE0F9312
S1131DE01F932F933F934F935F936F937F938F939F
S1131DF09F93AF93BF93EF93FF93CF93DF931F9280
S1131E001F92CDB7DEB70091193810911A38AE0180
S1131E104F5F5F4FBE016E5F7F4FD80115968D9166
S1131E209C9116970E949A05813031F4D801ED9166
S1131E30FC918A81808306C0D801ED91FC91838155
S1131E408C7F83830F900F90DF91CF91FF91EF915F
S1131E50BF91AF919F918F917F916F915F914F91BE
S1131E603F912F911F910F910F900BBE0F900ABEBF
S1131E700F9009BE0F9008BE0F900FBE0F901F90D9
S1131E801895CF92DF92EF92FF920F931F93CF9307
S1131E90DF936C01162FF42E80EAC81689E0D80669
S1131EA0B1F080EAC8168AE0D806E9F080EAC816DC
S1131EB088E0D80619F587E090E00E942501EC013E
S1131EC080931D3890931E38E0E4F6E017C087E055
S1131ED090E00E942501EC0180931B3890931C38FC
S1131EE0E0E6F6E00BC087E090E00E942501EC01FB
S1131EF08093193890931A38E0E8F6E088E08183FB
S1131F0084E08283E12C08E120E040E068E0CF0136
S1131F1062DDC882D98281E08A8361E08F2D0E94CC
S1131F20EE038B839C8361E08F2D0E94EE038D83EF
S1131F309E83E881F9818BE08583E881F98183813F
S1131F408F7C806183831330E1F028F4113059F1E0
S1131F50123001F131C0143059F0153069F5E881BF
S1131F60F9818EE28683E881F98188E987832CC030
S1131F70E881F9818EE68683E881F98188EA87839E
S1131F8023C0E881F98185EC8683E881F9818CEAB4
S1131F9087831AC0E881F98185EE8683E881F98117
S1131FA08CEB878311C0E881F98185EF8683E88112
S1131FB0F9818CEC878308C0E881F98185EF8683F9
S1131FC0E881F9818CEC8783E881F98184818061DF
S1131FD08483E881F981848188608483CE01DF91E0
S1131FE0CF911F910F91FF90EF90DF90CF900895C4
S1131FF00F931F93CF93DF931F92CDB7DEB78C015E
S1132000698320E0BE016F5F7F4FDC0115968D91DF
S11320109C9116970E943A04882351F0D801ED91BF
S1132020FC91119783818C7F12969C91892B8383D9
S11320300F90DF91CF911F910F91089520E0FC0143
S1132040838194810C94EC040895EF92FF920F9392
S11320501F93CF93DF938C01EB017A016881662390
S113206039F02196A701C801C3DF69916111FACF44
S1132070DF91CF911F910F91FF90EF900895FB0195
S1132080DC0102C001900D9241505040D8F70895F0
S1132090DC0101C06D9341505040E0F70895FB010D
S11320A0DC014150504048F001900D920020C9F7E6
S11320B001C01D9241505040E0F70895F894FFCFBD
S11320C0FFFF49444C4500546D7220537663000A67
S11320D00A0D584D45474120726561647900626C70
S11320E0696E6B3100626C696E6B3200756172747B
S10520F03100B9
S9030000FC
