S00C00006D61696E2E7372656373
S1130000FDC0000021C100001FC100001DC100008F
S11300101BC1000019C1000017C1000015C1000078
S113002013C1000011C100000FC100000DC1000088
S11300300BC1000009C1000035C2000005C1000069
S113004003C1000001C10000FFC00000FDC00000AA
S1130050FBC00000F9C00000F7C00000F5C00000BC
S1130060F3C00000F1C00000EFC00000EDC00000CC
S1130070EBC00000E9C00000E7C00000E5C00000DC
S1130080E3C00000E1C00000DFC00000DDC00000EC
S1130090DBC00000D9C00000D7C00000D5C00000FC
S11300A0D3C00000D1C00000CFC00000CDC000000C
S11300B0CBC00000C9C00000C7C00000C5C000001C
S11300C0C3C00000C1C00000BFC00000BDC000002C
S11300D0BBC00000B9C00000B7C00000B5C000003C
S11300E0B3C00000B1C00000AFC00000ADC000004C
S11300F0ABC00000A9C00000A7C00000A5C000005C
S1130100A3C00000A1C000009FC000009DC000006B
S11301109BC0000099C0000097C0000095C000007B
S113012093C0000091C000008FC000008DC000008B
S11301308BC0000089C0000087C0000085C000009B
S113014083C0000081C000007FC000007DC00000AB
S11301507BC0000079C0000077C0000075C00000BB
S113016073C0000071C000006FC000006DC00000CB
S11301706BC0000069C0000067C0000065C00000DB
S113018063C0000061C000005FC000005DC00000EB
S11301905BC0000059C0000057C0000055C00000FB
S11301A053C0000051C000004FC000004DC000000B
S11301B04BC0000049C0000047C0000045C000001B
S11301C043C0000041C000003FC000003DC000002B
S11301D03BC0000039C0000037C0000035C000003B
S11301E033C0000031C000002FC000002DC000004B
S11301F02BC0000029C0000027C0000011241FBE2E
S1130200CFEFCDBFDFE3DEBF00E00CBF18BE19BEE9
S11302101ABE1BBE10E2A0E0B0E2E4E7F9E100E0A0
S11302200BBF02C007900D92AE31B107D9F71BBEC8
S113023028E3AEE1B0E201C01D92A330B207E1F7BA
S11302400E945C0C0C94B80CDBCECF93DF93EC01D2
S1130250E7D540911E2050911F209E01240F351F89
S1130260203787E1380758F44217530758F4EA0156
S1130270C05EDF4D20931E2030931F2005C0C0E0D8
S1130280D0E002C0C0E0D0E09CD6CE01DF91CF9197
S11302900895089531E1FC013083319722E22083EF
S11302A03197A3E3A08331976083319770833197AB
S11302B0108231971082319760E860833197108201
S11302C0319762E06083319763E06083319764E043
S11302D06083319765E06083319766E0608331978E
S11302E067E06083319768E06083319769E06083F9
S11302F0319760E1608331973083319732E1308305
S1130300319733E13083319734E13083319735E1EC
S11303103083319736E13083319737E13083319739
S113032038E13083319739E13083319730E23083DB
S1130330319731E2308331972083319723E2208350
S11303403197408331975083319726E22083319748
S113035027E22083319728E22083319729E2208302
S1130360319720E32083319721E3208387970895F1
S113037065E080E098E00E948D0C8EE190E0E0E082
S1130380F8E086A397A361E080E098E00E94930CD4
S1130390E0EAF0E0828181608283A091E737B09146
S11303A0E837CD91CDBFDD91DEBFFF91EF91DF91B5
S11303B0CF91BF91AF919F918F917F916F915F91F9
S11303C04F913F912F911F910F91FF90EF90DF90EC
S11303D0CF90BF90AF909F908F907F906F905F90E1
S11303E04F903F902F901F900F900FBE0F90089545
S11303F081E008950F920FB6F8940F921F92112482
S11304002F923F924F925F926F927F928F929F9220
S1130410AF92BF92CF92DF92EF92FF920F931F930E
S11304202F933F934F935F936F937F938F939F93F8
S1130430AF93BF93CF93DF93EF93FF93A091E737ED
S1130440B091E8370DB60D920EB60D925DD6A0911F
S1130450E737B091E837CD91CDBFDD91DEBFFF9195
S1130460EF91DF91CF91BF91AF919F918F917F9148
S11304706F915F914F913F912F911F910F91FF9039
S1130480EF90DF90CF90BF90AF909F908F907F9030
S11304906F905F904F903F902F901F900F900FBEE2
S11304A00F9008950F920FB6F8940F921F92112493
S11304B02F923F924F925F926F927F928F929F9270
S11304C0AF92BF92CF92DF92EF92FF920F931F935E
S11304D02F933F934F935F936F937F938F939F9348
S11304E0AF93BF93CF93DF93EF93FF93A091E7373D
S11304F0B091E8370DB60D920EB60D92A1D404D684
S1130500A091E737B091E837CD91CDBFDD91DEBF43
S1130510FF91EF91DF91CF91BF91AF919F918F9117
S11305207F916F915F914F913F912F911F910F9107
S1130530FF90EF90DF90CF90BF90AF909F908F90FF
S11305407F906F905F904F903F902F901F900F90EF
S11305500FBE0F901895FC010396818392832FEFB1
S11305603FEF238334838583968387839087108228
S11305700895FC01108611860895CF93DF93FC0142
S1130580DB0121813281E9018A819B8112968D935D
S11305909C9313978181928114968D939C931597C4
S11305A08A819B81EC016C837D83E9016A837B836F
S11305B0618372831896ED93FC93199780818F5F02
S11305C08083DF91CF910895CF93DF93EB0148812E
S11305D059814F3F2FEF520731F4DC011796ED910B
S11305E0FC91189717C0FC013396DC0115962D91E8
S11305F03C911697D9012D913C914217530750F025
S11306000280F381E02DA281B3812D913C914217A8
S11306105307B0F7A281B381AA83BB831496CD9309
S1130620DC931597EC83FD83C283D38388879987F2
S1130630FC0120812F5F2083DF91CF910895FC017D
S1130640A281B3818481958114968D939C9315978F
S1130650A481B5818281938112968D939C93139783
S1130660A085B18511968D919C9112978E179F0745
S113067031F48481958111968D939C931297108601
S113068011868C9181508C930895CF93DF93EC0164
S11306908C8D81110AC088819981892BD9F58A8131
S11306A09B81C7D61A821B8235C0411117C0482FBF
S11306B050E08C819D810E94990C2C8D8C819D81B0
S11306C0820F911D8C839D832A813B81821793071E
S11306D008F1888199818C839D831CC0482F50E048
S11306E08E819F810E94990C2C8D30E0319521954B
S11306F031098E819F81820F931F8E839F8348814E
S113070059818417950730F48A819B81280F391FFA
S11307102E833F838A8D8F5F8A8FDF91CF910895D7
S1130720FC01CB01A081B181109799F0448D50E078
S113073026813781240F351F268337836281738195
S11307402617370710F0A683B783668177810C9448
S1130750990C08950F931F93CF93DF93EC010FB679
S1130760F8940F928E8D18169CF48989882381F051
S11307708E010F5E1F4F03C08989882349F0C80189
S113078062D58111EAD58E8D81508E8F1816A4F30F
S11307908FEF8E8F0F900FBE0FB6F8940F928D8D42
S11307A018169CF48885882381F08E01085F1F4FFA
S11307B003C08885882349F0C80145D58111CDD56A
S11307C08D8D81508D8F1816A4F38FEF8D8F0F9020
S11307D00FBEDF91CF911F910F910895CF92DF92B9
S11307E0EF92FF920F931F93CF93DF93D82EC62ED1
S11307F08823A1F18FE190E028DDEC01009781F1DD
S1130800EC2CF12CDE9C8001DF9C100D1124C8011E
S113081001961BDD888399830097D9F0AC01400FC2
S1130820511F4A835B831A8E8C839D830E191F0983
S11308309C01200F311F2E833F83DB8ECC8E8FEFE4
S11308408D8F8E8FCE01089686DECE01419683DE93
S113085007C0CE011EDDC0E0D0E002C0C0E0D0E0A1
S1130860CE01DF91CF911F910F91FF90EF90DF9018
S1130870CF900895AF92BF92CF92DF92EF92FF9202
S11308800F931F93CF93DF93CDB7DEB72597CDBFDB
S1130890DEBF8C016B014C835D83A22EB12C7C01E5
S11308A088E0E80EF11C0FB6F8940F92F801928DCF
S11308B0838D981790F44A2DB601C801E6DEF8013D
S11308C08189882331F0C8014196BDD4813009F46F
S11308D091DD0F900FBE81E047C0EC81FD81EF2BCD
S11308E021F40F900FBE80E03FC0B11005C0CE01CF
S11308F00196EAD4BB24B3940F900FBE91D20FB6E5
S1130900F8940F92F801858D8F3F09F4158EF80144
S1130910868D8F3F09F4168E0F900FBEBE016C5F5B
S11309207F4FCE010196DBD481111AC00FB6F89423
S11309300F92F801928D0F900FBEF801838D9813DA
S11309400BC06C817D81C7013CD4C80103DF39D35E
S11309508111A9CF4FDDA7CFC801FCDE32D3A3CFCD
S1130960C801F8DE2ED380E02596CDBFDEBFDF912F
S1130970CF911F910F91FF90EF90DF90CF90BF9098
S1130980AF9008950F931F93CF93DF93EC018A01E7
S11309909A8D8B8D9817B0F4422FCE0176DE8E8D12
S11309A08F3F61F48989882379F0CE0141964BD435
S11309B0882361F081E0F801808309C08F5F8E8F06
S11309C081E005C080E003C081E001C081E0DF91E7
S11309D0CF911F910F910895AF92BF92CF92DF9262
S11309E0EF92FF920F931F93CF93DF93CDB7DEB7B0
S11309F02597CDBFDEBF8C016B014C835D83B22E86
S1130A00A12C7C0181E1E80EF11C0FB6F8940F9241
S1130A10F801828D882369F1E680F780B601C80168
S1130A207FDEB11017C0F801828D8150828F8081E2
S1130A309181892B21F495D4F80182839383F80161
S1130A408085882391F0C8010896FDD3813069F42C
S1130A50D1DC0BC0F801E682F7828189882329F072
S1130A60C8014196F0D38111C5DC0F900FBE81E01F
S1130A7053C04C815D81452B21F40F900FBE80E063
S1130A804BC0A11005C0CE0101961ED4AA24A39484
S1130A900F900FBEC5D10FB6F8940F92F801858D53
S1130AA08F3F09F4158EF801868D8F3F09F4168E59
S1130AB00F900FBEBE016C5F7F4FCE0101960FD425
S1130AC0811126C00FB6F8940F92F801828D0F9011
S1130AD00FBE811119C0F80180819181892B49F4DD
S1130AE00FB6F8940F92F801828193814DD40F9040
S1130AF00FBE6C817D81C70164D3C8012BDE61D236
S1130B00811183CF77DC81CFC80124DE5AD27DCF17
S1130B10C80120DE56D280E02596CDBFDEBFDF912E
S1130B20CF911F910F91FF90EF90DF90CF90BF90E6
S1130B30AF900895CF93DF93EC010FB6F8940F9222
S1130B408D8D8F3F09F41D8E8E8D8F3F09F41E8E7F
S1130B500F900FBE8A8D811103C0CE01419659D3E7
S1130B60CE01F8DDDF91CF910895C3ECD7E38881FE
S1130B708230E8F33FDCFBCFCF93DF93EC01E091CD
S1130B80E737F091E8378283938380919837909187
S1130B909937C817D90760F46091E7377091E8373F
S1130BA08091AD379091AE376E5F7F4F0DDD16C0EB
S1130BB06091E7377091E8378091AF379091B03703
S1130BC06E5F7F4F01DD8091002090910120C81756
S1130BD0D90720F4C0930020D0930120DF91CF9156
S1130BE008954F925F926F927F928F929F92AF92ED
S1130BF0BF92CF92DF92EF92FF920F931F93CF9306
S1130C00DF934C013B015A01290182E290E01DDB94
S1130C10EC01009709F4C6C0C114D10409F0BEC0A8
S1130C20C50113DB8F8B988F009719F4CE0131DB4C
S1130C30B9C0A50165EA70E085D681E0A81AB108BB
S1130C408F89988DA80EB91E48E050E0B301CE01FB
S1130C5049967FD618A2102F043008F013E01E8B9B
S1130C6019A36E01E2E0CE0ED11CC60182DCCE01D6
S1130C700C967FDCC887D98784E090E0811B9109BA
S1130C808C879D87CA8BDB8BA201B401C50102DB73
S1130C9088839983E114F10419F0F701C083D183A7
S1130CA00FB6F8940F9280919A378F5F80939A379A
S1130CB08091E7379091E837892B69F5C093E7373E
S1130CC0D093E83780919A378130A1F583EC97E38C
S1130CD042DC8CEC97E33FDC85ED97E33CDC8EED66
S1130CE097E339DC8AEB97E336DC81EB97E333DC7B
S1130CF084EA97E330DC8BE997E32DDC8AEB97E316
S1130D008093AF379093B03781EB97E38093AD37FF
S1130D109093AE370FC08091953781110BC0E0914D
S1130D20E737F091E8378689081720F0C093E73752
S1130D30D093E8378E8990919737981710F4809361
S1130D409737909190379F5F909390379091963713
S1130D50981710F48093963790E09C01220F331F6C
S1130D60220F331F220F331F820F931FB6018D539F
S1130D70984C03DC0F900FBE80919537882351F077
S1130D80E091E737F091E8378689801728F432DB61
S1130D9081E009C081E007C081E005C0CF8AD88E18
S1130DA0C60147CF8FEFDF91CF911F910F91FF9035
S1130DB0EF90DF90CF90BF90AF909F908F907F90F7
S1130DC06F905F904F900895AF92BF92CF92DF9251
S1130DD0EF92FF920F93A12CB12CC12CD12CE12CBA
S1130DE0F12C00E020E030E046E950E062E070E2FF
S1130DF085EB95E0F6DE813059F49ED3813041F4E1
S1130E00F894809395371092983710929937B0DA06
S1130E100F91FF90EF90DF90CF90BF90AF90089527
S1130E20809194378F5F8093943708950FB6F89428
S1130E300F9280919837909199370F900FBE089533
S1130E400F931F93CF93DF93809194378111AFC099
S1130E508091983790919937019680939837909321
S1130E6099378091983790919937892B99F580918A
S1130E70AF379091B0372091AD373091AE37209392
S1130E80AF373093B0378093AD379093AE378091BE
S1130E9091378F5F80939137E091AF37F091B037FE
S1130EA08081811107C08FEF9FEF80930020909382
S1130EB0012010C0E091AF37F091B0370580F68182
S1130EC0E02D0680F781E02D8281938180930020BC
S1130ED09093012020919837309199378091002088
S1130EE0909101202817390708F466C0E091AF37C4
S1130EF0F091B0378081882399F0E091AF37F09179
S1130F00B0370580F681E02DC681D7818A819B8127
S1130F10209198373091993728173907F8F419C078
S1130F208FEF9FEF809300209093012045C0E091C4
S1130F30AF37F091B0370580F681E02DC681D781B7
S1130F408A819B81209198373091993728173907E6
S1130F5028F480930020909301202EC08E010E5F10
S1130F601F4FC8016CDB8C899D89892B19F0CE0138
S1130F700C9665DB8E8990919637981710F48093C0
S1130F80963790E09C01220F331F220F331F220F4C
S1130F90331F820F931FB8018D53984CEEDAE09102
S1130FA0AF37F091B03780818111C1CFB9CF809133
S1130FB093378F5F80939337DF91CF911F910F9178
S1130FC00895BF92CF92DF92EF92FF920F931F93F7
S1130FD0CF93DF930FB6F8940F928091943781509A
S1130FE08093943780919437811162C080919A37AD
S1130FF0882309F45FC0B12C0F2EF4EAEF2EF7E337
S1131000FF2EF02D0F2EF9EACF2EF7E3DF2EF02D71
S11310102CC0D601ED91FC91C681D781CE010C96EE
S11310200EDB8E010E5F1F4FC80109DB8E89909184
S11310309637981710F48093963790E09C01220F0E
S1131040331F220F331F220F331F820F931FB80148
S11310508D53984C92DAE091E737F091E8379E8906
S11310608689981710F0BB24B394F701808181110D
S1131070D0CF80919337882379F080919337882358
S113108091F0DEDE80919337815080939337809185
S113109093378111F6CF07C0F1E0BF1621F080919C
S11310A09237813049F410929237A4D981E005C077
S11310B080E003C080E001C080E00F900FBEDF91AC
S11310C0CF911F910F91FF90EF90DF90CF90BF9041
S11310D00895CF93DF93EC01009791F0A1DE809106
S11310E0983790919937C80FD91F8091E73790911D
S11310F0E8370296A4DACE013FDD63DF811101C037
S113110079D9DF91CF91089580919437811113C0DB
S11311108091963790E0FC01EE0FFF1FEE0FFF1F4A
S1131120EE0FFF1F8E0F9F1FFC01ED53F84C8081C3
S1131130882329F01BC081E0809392370895809121
S113114096378150809396378091963790E0FC01D2
S1131150EE0FFF1FEE0FFF1FEE0FFF1F8E0F9F1FDF
S1131160FC01ED53F84C8081882349F3E0919637D4
S1131170F0E0CF01880F991F880F991F880F991FDE
S1131180E80FF91FED53F84CA181B28112960D902E
S1131190BC91A02DA183B283CF010396A817B907F0
S11311A031F412968D919C911397818392830180DF
S11311B0F281E02D868197818093E7379093E83719
S11311C00895CF93DF93EB016091E7377091E8378F
S11311D0645F7F4FF9D98091E7379091E8370296A1
S11311E02EDACF3F8FEFD80751F46091E737709133
S11311F0E8376E5F7F4F8BE997E3BFD907C08091D3
S11312009837909199378C0F9D1FB6DCDF91CF9161
S11312100895CF93DF93EB016091E7377091E8373E
S1131220645F7F4FAAD98091E7379091E83702969F
S113123006DA80919837909199378C0F9D1F9CDC2A
S1131240DF91CF9108950F931F93CF93DF93DC0128
S11312501596ED91FC911697C681D7818E01045F96
S11312601F4FC801ECD98091943781111AC00A50DC
S11312701109C801E4D98E8990919637981710F412
S11312808093963790E09C01220F331F220F331F67
S1131290220F331F820F931FB8018D53984C6DD9C1
S11312A004C0B80184EA97E368D9E091E737F09184
S11312B0E83781E02E899689291708F480E0DF91C8
S11312C0CF911F910F91089520919137FC012083B4
S11312D020919837309199372183328308950FB63E
S11312E0F8940F92DB012D913C912F3FBFEF3B0708
S11312F061F140919137FC015081541751F04091B4
S11313009837509199370180F281E02D4E175F078D
S1131310F0F4E0919837F0919937DC0111964D91F2
S11313205C911297E41BF50BE217F30790F4E0913C
S11313309837F09199374E1B5F0B240F351FFB0133
S113134020833183C1DF80E005C080E003C081E0F9
S113135001C081E00F900FBE089581E08093923721
S113136008958091E7379091E837089580919537F3
S1131370882331F080919437811104C081E008956D
S113138080E0089582E008950F931F93CF93DF9335
S1131390EC018E89E091E737F091E8379689891757
S11313A008F042C0E091E737F091E837968924E0ED
S11313B030E0291B31092C873D8790E09C01220FE6
S11313C0331F220F331F220F331F820F931F8D539E
S11313D0984C2A853B852817390701F58E010E5F45
S11313E01F4FC8012CD9E091E737F091E83786897F
S11313F08E8B90919637981710F48093963790E0DF
S11314009C01220F331F220F331F220F331F820F21
S1131410931FB8018D53984CB0D806C0E091E737BC
S1131420F091E83786898E8BDF91CF911F910F91D0
S113143008950F931F93CF93DF93EC01009729F145
S11314409E8989A1981709F18E010E5F1F4FC8016B
S1131450F6D889A18E8B24E030E0281B31092C8733
S11314603D8790919637981710F48093963790E0C3
S11314709C01220F331F220F331F220F331F820FB1
S1131480931FB8018D53984C78D8DF91CF911F9159
S11314900F910895FC0162837383808791874617B7
S11314A0570788F0421B530B8485958548175907C5
S11314B0D0F4BF016E5F7F4F8091ED379091EE378E
S11314C083D880E008954217530718F4621773070E
S11314D060F4BF016E5F7F4F8091EF379091F037DA
S11314E073D880E0089581E0089581E008950FB6EF
S11314F0F8940F928091EB379091EC37892BC9F4D3
S11315008AEF97E328D881EF97E325D88AEF97E30A
S11315108093EF379093F03781EF97E38093ED3723
S11315209093EE3765E080E159D98093EB3790933F
S1131530EC370F900FBE0895AF92BF92CF92DF9217
S1131540EF92FF920F93D3DF8091EB379091EC37BA
S1131550892B89F0A12CB12CC12CD12CE12CF12C9C
S113156001E020E030E046E950E067E070E286E721
S11315709BE037DB01C080E00F91FF90EF90DF909C
S1131580CF90BF90AF9008950F931F93CF93DF93A5
S1131590CDB7DEB72597CDBFDEBFD901E091EB37DC
S11315A0F091EC37309749F169834A835B838C83EC
S11315B09D831097D1F4DADE813059F420E0A8013C
S11315C0BE016F5F7F4F8091EB379091EC3752D91A
S11315D015C020E040E050E0BE016F5F7F4F809176
S11315E0EB379091EC3746D909C020E0AD01BE013C
S11315F06F5F7F4FCF01C6D901C080E02596CDBF74
S1131600DEBFDF91CF911F910F910895AF92BF92EA
S1131610CF92DF92EF92FF920F931F93CF93DF93BA
S11316205C0104DC6C018091E9379091EA37C816BB
S1131630D90608F049C031C0A581B681ED90FC906F
S11316400580F681E02DC681D7818E010E5F1F4F84
S1131650C8010E941F03E989FA89CE0119958E8574
S11316608130D9F48C859D858E0D9F1DE816F90671
S113167060F48A839B83C887D987B8018091EF3748
S11316809091F0370E94E40208C000E010E020E0EE
S113169030E0A70160E0CE0177DFE091EF37F09111
S11316A0F03780818111C8CF8091ED379091EE376A
S11316B08093EF379093F037E093ED37F093EE3764
S11316C081E0F501808302C0F5011082C092E93700
S11316D0D092EA37C601DF91CF911F910F91FF900D
S11316E0EF90DF90CF90BF90AF900895CF93DF93AA
S11316F000D000D0CDB7DEB7CE0101965C01882EB4
S11317009B2CE091EF37F091F0378081882309F426
S1131710B0C00580F681E02DE080F18081DBC50159
S113172075DF8C018981811143C00E151F0590F16D
S113173048DCE091EF37F091F0370580F681E02D39
S1131740C680D780C60102960E941F03D6011E964A
S11317508C911E978130A1F41C966D917C911D97FC
S11317606E0D7F1D9701A801C60194DE813041F4FE
S113177000E010E020E030E0A70160E0C60104DFF3
S1131780D6015196ED91FC915297C601199511C05D
S1131790E12CF12CB701601B710B8091EB37909118
S11317A0EC37C8D90EDC811104C00E94FA0101C0D3
S11317B008DCCE0106962ADF6C014EC0EC80FD8069
S11317C0E114F10459F0D7011A96ED91FC911B979D
S11317D0EF2B21F0C70102960E941F0389818230FA
S11317E049F18330B1F1811137C02A813B81F7017E
S11317F064857585620F731FA601C7014BDE8130B6
S113180059F5D7015196ED91FC915297C70119955D
S1131810F7018685813001F5448555858A819B8150
S1131820480F591F00E010E020E030E060E0C701FD
S1131830ABDE12C02A813B81D7011C962D933C93C9
S11318401D97B601620F731F9601A601C70122DE20
S113185003C0C7010E94490120E040E050E0682D28
S1131860792D8091EB379091EC37B6D88111A6CFC2
S113187048CFD6DAC501CADE8C018981882309F4F0
S113188087CF96CFC0E0D6E010E1012F0D8388EE1C
S113189093E01FDC1E8388EE93E01BDCF7CFC0E0EF
S11318A0D6E011E0012F0D8384E690E012DC1E8364
S11318B084E690E00EDCF7CFAF92BF92CF92DF9236
S11318C0EF92FF920F93E0E0F6E080E1818381E004
S11318D08183A12CB12CC12CD12CE12CF12C01E061
S11318E020E030E040E054E06FE070E282E49CE00D
S11318F078D920E030E040E054E066E170E28FE423
S11319009CE06FD961DA80E090E00F91FF90EF9056
S1131910DF90CF90BF90AF900895FC012081207F8D
S1131920622B60830895FC0126812C7F622B6683E1
S11319300895FB01DC0102C001900D92415050401A
S1131940D8F70895DC0101C06D9341505040E0F791
S11319500895FB01DC014150504048F001900D9284
S11319600020C9F701C01D9241505040E0F708958E
S1071970F894FFCF15
S1131974FFFF49444C4500546D7220537663006262
S11119846C696E6B3100626C696E6B32000030
S9030000FC
